{
	"data": {
		"bytecode": {
			"linkReferences": {},
			"object": "60806040526005600055600860015534801561001a57600080fd5b506102088061002a6000396000f3fe608060405234801561001057600080fd5b50600436106100365760003560e01c8063b4a4fad81461003b578063ca5d088014610059575b600080fd5b610043610077565b6040516100509190610101565b60405180910390f35b610061610091565b60405161006e919061011c565b60405180910390f35b60006005600054141561008d576001905061008e565b5b90565b6000600a60015414156100ba576000600a6001546100af9190610137565b9050809150506100e0565b600a600154146100df576000600180546100d49190610137565b9050809150506100e0565b5b90565b6100ec8161018d565b82525050565b6100fb81610199565b82525050565b600060208201905061011660008301846100e3565b92915050565b600060208201905061013160008301846100f2565b92915050565b600061014282610199565b915061014d83610199565b9250827fffffffffffffffffffffffffffffffffffffffffffffffffffffffffffffffff03821115610182576101816101a3565b5b828201905092915050565b60008115159050919050565b6000819050919050565b7f4e487b7100000000000000000000000000000000000000000000000000000000600052601160045260246000fdfea2646970667358221220f19ceed9123a9cee485fbea608c1654fdfb380409b95a6fc0b21df7fba317f8564736f6c63430008060033",
			"opcodes": "PUSH1 0x80 PUSH1 0x40 MSTORE PUSH1 0x5 PUSH1 0x0 SSTORE PUSH1 0x8 PUSH1 0x1 SSTORE CALLVALUE DUP1 ISZERO PUSH2 0x1A JUMPI PUSH1 0x0 DUP1 REVERT JUMPDEST POP PUSH2 0x208 DUP1 PUSH2 0x2A PUSH1 0x0 CODECOPY PUSH1 0x0 RETURN INVALID PUSH1 0x80 PUSH1 0x40 MSTORE CALLVALUE DUP1 ISZERO PUSH2 0x10 JUMPI PUSH1 0x0 DUP1 REVERT JUMPDEST POP PUSH1 0x4 CALLDATASIZE LT PUSH2 0x36 JUMPI PUSH1 0x0 CALLDATALOAD PUSH1 0xE0 SHR DUP1 PUSH4 0xB4A4FAD8 EQ PUSH2 0x3B JUMPI DUP1 PUSH4 0xCA5D0880 EQ PUSH2 0x59 JUMPI JUMPDEST PUSH1 0x0 DUP1 REVERT JUMPDEST PUSH2 0x43 PUSH2 0x77 JUMP JUMPDEST PUSH1 0x40 MLOAD PUSH2 0x50 SWAP2 SWAP1 PUSH2 0x101 JUMP JUMPDEST PUSH1 0x40 MLOAD DUP1 SWAP2 SUB SWAP1 RETURN JUMPDEST PUSH2 0x61 PUSH2 0x91 JUMP JUMPDEST PUSH1 0x40 MLOAD PUSH2 0x6E SWAP2 SWAP1 PUSH2 0x11C JUMP JUMPDEST PUSH1 0x40 MLOAD DUP1 SWAP2 SUB SWAP1 RETURN JUMPDEST PUSH1 0x0 PUSH1 0x5 PUSH1 0x0 SLOAD EQ ISZERO PUSH2 0x8D JUMPI PUSH1 0x1 SWAP1 POP PUSH2 0x8E JUMP JUMPDEST JUMPDEST SWAP1 JUMP JUMPDEST PUSH1 0x0 PUSH1 0xA PUSH1 0x1 SLOAD EQ ISZERO PUSH2 0xBA JUMPI PUSH1 0x0 PUSH1 0xA PUSH1 0x1 SLOAD PUSH2 0xAF SWAP2 SWAP1 PUSH2 0x137 JUMP JUMPDEST SWAP1 POP DUP1 SWAP2 POP POP PUSH2 0xE0 JUMP JUMPDEST PUSH1 0xA PUSH1 0x1 SLOAD EQ PUSH2 0xDF JUMPI PUSH1 0x0 PUSH1 0x1 DUP1 SLOAD PUSH2 0xD4 SWAP2 SWAP1 PUSH2 0x137 JUMP JUMPDEST SWAP1 POP DUP1 SWAP2 POP POP PUSH2 0xE0 JUMP JUMPDEST JUMPDEST SWAP1 JUMP JUMPDEST PUSH2 0xEC DUP2 PUSH2 0x18D JUMP JUMPDEST DUP3 MSTORE POP POP JUMP JUMPDEST PUSH2 0xFB DUP2 PUSH2 0x199 JUMP JUMPDEST DUP3 MSTORE POP POP JUMP JUMPDEST PUSH1 0x0 PUSH1 0x20 DUP3 ADD SWAP1 POP PUSH2 0x116 PUSH1 0x0 DUP4 ADD DUP5 PUSH2 0xE3 JUMP JUMPDEST SWAP3 SWAP2 POP POP JUMP JUMPDEST PUSH1 0x0 PUSH1 0x20 DUP3 ADD SWAP1 POP PUSH2 0x131 PUSH1 0x0 DUP4 ADD DUP5 PUSH2 0xF2 JUMP JUMPDEST SWAP3 SWAP2 POP POP JUMP JUMPDEST PUSH1 0x0 PUSH2 0x142 DUP3 PUSH2 0x199 JUMP JUMPDEST SWAP2 POP PUSH2 0x14D DUP4 PUSH2 0x199 JUMP JUMPDEST SWAP3 POP DUP3 PUSH32 0xFFFFFFFFFFFFFFFFFFFFFFFFFFFFFFFFFFFFFFFFFFFFFFFFFFFFFFFFFFFFFFFF SUB DUP3 GT ISZERO PUSH2 0x182 JUMPI PUSH2 0x181 PUSH2 0x1A3 JUMP JUMPDEST JUMPDEST DUP3 DUP3 ADD SWAP1 POP SWAP3 SWAP2 POP POP JUMP JUMPDEST PUSH1 0x0 DUP2 ISZERO ISZERO SWAP1 POP SWAP2 SWAP1 POP JUMP JUMPDEST PUSH1 0x0 DUP2 SWAP1 POP SWAP2 SWAP1 POP JUMP JUMPDEST PUSH32 0x4E487B7100000000000000000000000000000000000000000000000000000000 PUSH1 0x0 MSTORE PUSH1 0x11 PUSH1 0x4 MSTORE PUSH1 0x24 PUSH1 0x0 REVERT INVALID LOG2 PUSH5 0x6970667358 0x22 SLT KECCAK256 CALL SWAP13 0xEE 0xD9 SLT GASPRICE SWAP13 0xEE 0x48 0x5F 0xBE 0xA6 ADDMOD 0xC1 PUSH6 0x4FDFB380409B SWAP6 0xA6 0xFC SIGNEXTEND 0x21 0xDF PUSH32 0xBA317F8564736F6C634300080600330000000000000000000000000000000000 "
		},
		"gasEstimates": {
			"creation": {
				"codeDepositCost": "104000",
				"executionCost": "44365",
				"totalCost": "148365"
			},
			"external": {
				"airDrop()": "infinite",
				"validateOranges()": "2458"
			}
		},
		"methodIdentifiers": {
			"airDrop()": "ca5d0880",
			"validateOranges()": "b4a4fad8"
		}
	},
	"abi": [
		{
			"inputs": [],
			"name": "airDrop",
			"outputs": [
				{
					"internalType": "uint256",
					"name": "",
					"type": "uint256"
				}
			],
			"stateMutability": "view",
			"type": "function"
		},
		{
			"inputs": [],
			"name": "validateOranges",
			"outputs": [
				{
					"internalType": "bool",
					"name": "",
					"type": "bool"
				}
			],
			"stateMutability": "view",
			"type": "function"
		}
	]
}